:020000040000FA
:10C00000482900203DC40000750A010077E40000C3
:10C010006D0A010085D600004930010000000000D3
:10C02000000000000000000000000000AD21010041
:10C0300021E3000000000000BD0D0100C52101004A
:10C0400081E4000095E40000A9E40000BDE40000E4
:10C05000D1E40000E5E40000F9E400000DE5000093
:10C0600021E5000035E5000049E500005DE5000040
:10C0700071E5000085E5000099E50000ADE50000F0
:10C08000C1E50000D5E50000E9E50000FDE50000A0
:10C0900011E6000025E6000039E600004DE600004C
:10C0A00061E6000075E6000089E600009DE60000FC
:10C0B000B1E60000C5E60000D9E60000EDE60000AC
:10C0C00001E7000019E7000031E7000049E7000040
:10C0D00061E7000079E7000091E70000A9E70000B0
:10C0E000C1E70000D9E70000F1E7000009E800001F
:10C0F00021E8000039E8000051E8000069E800008C
:10C1000081E8000099E80000B1E80000C9E80000FB
:10C11000E1E80000F9E8000011E9000029E9000069
:10C1200041E9000059E9000071E9000089E90000D7
:10C13000A1E90000B9E90000D1E90000E9E9000047
:10C1400001EA000019EA000031EA000049EA0000B3
:10C1500061EA000079EA000091EA0000A9EA000023
:10C16000C1EA0000D9EA0000F1EA000009EB000092
:10C1700021EB000039EB000051EB000069EB0000FF
:10C1800081EB000099EB0000B1EB0000C9EB00006F
:10C19000E1EB0000F9EB000011EC000029EC0000DD
:10C1A00041EC000059EC000071EC000089EC00004B
:10C1B000A1EC0000B9EC0000D1EC0000E9EC0000BB
:10C1C00001ED000019ED000031ED000049ED000027
:10C1D00061ED000079ED000091ED0000A9ED000097
:10C1E000C1ED0000D9ED0000F1ED000009EE000006
:10C1F00021EE000039EE000051EE000069EE000073
:10C2000081EE000099EE0000B1EE0000C9EE0000E2
:10C21000E1EE0000F9EE000011EF000029EF000050
:10C2200041EF000059EF000071EF000089EF0000BE
:10C23000A1EF0000B9EF0000D1EF0000E9EF00002E
:10C2400001F0000051F10000B9F5000095F6000082
:10C250005DF900006DC400006DC400006DC40000F5
:10C26000CDFA0000EDFD000075000100B1020100F3
:10C27000D9030100ED050100490801005D09010035
:10C28000FFFFFFFFFFFFFFFFFFFFFFFFFFFFFFFFBE
:10C29000FFFFFFFFFFFFFFFFFFFFFFFFFFFFFFFFAE
:10C2A000FFFFFFFFFFFFFFFFFFFFFFFFFFFFFFFF9E
:10C2B000FFFFFFFFFFFFFFFFFFFFFFFFFFFFFFFF8E
:10C2C000FFFFFFFFFFFFFFFFFFFFFFFFFFFFFFFF7E
:10C2D000FFFFFFFFFFFFFFFFFFFFFFFFFFFFFFFF6E
:10C2E000FFFFFFFFFFFFFFFFFFFFFFFFFFFFFFFF5E
:10C2F000FFFFFFFFFFFFFFFFFFFFFFFFFFFFFFFF4E
:10C30000FFFFFFFFFFFFFFFFFFFFFFFFFFFFFFFF3D
:10C31000FFFFFFFFFFFFFFFFFFFFFFFFFFFFFFFF2D
:10C32000FFFFFFFFFFFFFFFFFFFFFFFFFFFFFFFF1D
:10C33000FFFFFFFFFFFFFFFFFFFFFFFFFFFFFFFF0D
:10C34000FFFFFFFFFFFFFFFFFFFFFFFFFFFFFFFFFD
:10C35000FFFFFFFFFFFFFFFFFFFFFFFFFFFFFFFFED
:10C36000FFFFFFFFFFFFFFFFFFFFFFFFFFFFFFFFDD
:10C37000FFFFFFFFFFFFFFFFFFFFFFFFFFFFFFFFCD
:10C38000FFFFFFFFFFFFFFFFFFFFFFFFFFFFFFFFBD
:10C39000FFFFFFFFFFFFFFFFFFFFFFFFFFFFFFFFAD
:10C3A000FFFFFFFFFFFFFFFFFFFFFFFFFFFFFFFF9D
:10C3B000FFFFFFFFFFFFFFFFFFFFFFFFFFFFFFFF8D
:10C3C000FFFFFFFFFFFFFFFFFFFFFFFFFFFFFFFF7D
:10C3D000FFFFFFFFFFFFFFFFFFFFFFFFFFFFFFFF6D
:10C3E000FFFFFFFFFFFFFFFFFFFFFFFFFFFFFFFF5D
:10C3F000FFFFFFFFFFFFFFFFFFFFFFFFFFFFFFFF4D
:10C40000FFFFFFFFFFFFFFFFFFFFFFFFFFFFFFFF3C
:10C41000FFFFFFFFFFFFFFFFFFFFFFFFFFFFFFFF2C
:10C42000DFF814D000F0F0FD00F0B8F90048004744
:10C430006912030000F0D6FC482900204FF000509C
:10C440004FF00002002100A1814200D902440848B7
:10C4500002600848804708480047FEE7FEE7FEE71D
:10C46000FEE7FEE7FEE7FEE7FEE7FEE7FEE7000089
:10C4700008ED00E09122010021C400002DE9F04107
:10C4800017460E46054633B107FB0354E41B20460E
:10C49000B047A542FAD1A5F10800BDE8F0812DE929
:10C4A000F05F0546002092469B4688460646814638
:10C4B00040241BE0284641464746224600F00BFC3C
:10C4C00053465A46C01A914110D311461846224687
:10C4D00000F0F2FB2D1A67EB01084F4622460120BF
:10C4E000002100F0E9FB17EB00094E41201EA4F1EA
:10C4F0000104DFDC484631462A464346BDE8F09F4A
:10C500002DE9F0410024061B254671F1000605DAED
:10C5100001240027D0EB070067EB0101161E73F121
:10C52000000605DA0027D2EB0702012567EB0303BB
:10C53000FFF7B5FF86460E4617469C46AC4204D030
:10C540000025D0EB050E65EB010624B10020D2EBEF
:10C55000000760EB030C704631463A466346BDE87F
:10C56000F081A0F14101192900D820307047D2B2E2
:10C5700001E000F8012B491EFBD270470022F6E7CC
:10C5800010B513460A4604461946FFF7F0FF204649
:10C5900010BD421E12F8013F002BFBD111F8013BE8
:10C5A00002F8013B002BF9D1704730B505462A4609
:10C5B0000B4612F8010B13F8014B08B1A042F8D05A
:10C5C0001CB1002802D06D1CF1E7284630BD10B523
:10C5D000044604E00B7800F8013B03B1491C521EED
:10C5E000F8D2204610BDCAB2401E10F8011F8A4280
:10C5F00002D00029F9D100207047421C10F8011B1D
:10C600000029FBD1801A704710B5002200E0521CAF
:10C61000835C8C5CA34201D1002BF8D1D8B2E1B28B
:10C62000401A10BD30B504460020034600E05B1CF4
:10C63000934203D2E05CCD5C401BF8D030BD034692
:10C6400011F8012B00F8012B002AF9D11846704788
:10C6500030B505460020034600E05B1C934205D23E
:10C66000EC5CC85C201A01D1002CF6D130BD02462A
:10C67000C9B200E0401C0378002BFBD102E0037834
:10C680008B4203D0401E9042F9D2002070472DE922
:10C69000F0410E460546002400E0641C285DFFF7CB
:10C6A00060FF0746305DFFF75CFF381A02D1295D55
:10C6B0000029F2D1BDE8F0812DE9F04791460F46FF
:10C6C00080460446002614F8015B2DB100F026FBDD
:10C6D0000068405DC007F6D12B2D02D02D2D18D05B
:10C6E000641E4A463946204600F01CFB27B13968D3
:10C6F000A14201D1C7F8008071054FF002040BD5AB
:10C700004042002803DD23F05BF90460A007BDE888
:10C71000F08746F48066E4E70028F8DA23F050F961
:10C7200004606FF00040F2E72DE9F05F93460F469A
:10C7300080460446002623F043F9D0F80090824654
:10C7400014F8015B2DB100F0E9FA0068405DC00704
:10C75000F6D12B2D02D02D2D1AD0641E0021CAF83F
:10C7600000105A463946204600F0DCFA014627B14F
:10C770003868A04201D1C7F80080DAF8000002282A
:10C7800009D0CAF80090700505D54842BDE8F09F71
:10C7900046F48066E2E70846F8E7000070B5054C0D
:10C7A000054D03E0206820448047241DAC42F9D1A8
:10C7B00070BD0000302C0300642C03002DE9F04113
:10C7C000074615460E46102024F054FD04000AD0FA
:10C7D0006760C4E9026500F001FB01682160046044
:10C7E0000020BDE8F0810120FBE72DE9FE4F8046E7
:10C7F00081EA0300C00F0C46009021F0004123F0B5
:10C800000045B8EB0200A94105D2404621469046BA
:10C810001C460B46024623F00040104347D0270D2C
:10C82000C7F30A00C3F30A510290401A019040284E
:10C830006BDAC3F3130040F4801B0098924620B1DA
:10C840000023D2EB030A63EB0B0B01985946C0F1AE
:10C850004002504600F030FA06460D465046594612
:10C86000019A00F048FA10EB08006141002487EAC1
:10C87000115284EAE7731A4340D0009A62B3019AD6
:10C88000012A4FEA075215DC001B61EB02014FF051
:10C89000004202EA0752CDE90042001C41F5801136
:10C8A00032462B4600F023FB03B0BDE8F08F404634
:10C8B0002146F9E7001B61EB0201001C41F58013E2
:10C8C00000185B412018A2F5001747EB030140EA6E
:10C8D000D570B6196D4111E06D084FEA360645EA8C
:10C8E000C0754FEA0752001B61EB0201001C41F5C5
:10C8F000801149084FEA30000019514132462B4659
:10C9000003B0BDE8F04F00F0E3BA00980122400008
:10C910000023D0EB020263EBE073009821464FEA5C
:10C92000E074B8EB000061EB0401E9E783F0004339
:10C930005BE781F0004158E72DE9FE4F81EA0304EF
:10C9400004F0004421F0004100944FF0000B23F06C
:10C95000004350EA01045ED052EA03045BD0C3F303
:10C960000A54C1F30A552C44A4F2F3340194A0FBF9
:10C970000254C1F3130141F48011C3F3130343F4D0
:10C98000801301FB024400FB034E840A970A44EA29
:10C99000815447EA8357A4FB076802958D0A05FB7B
:10C9A00007854FEA932C04FB0C542705029D4FEAA0
:10C9B000065847EA1637B5EB08056EEB070C870EED
:10C9C000920E47EA811742EA8312A7FB0201B6EBF7
:10C9D0000B0164EB00042B0D43EA0C335E1844EBAF
:10C9E0001C50DA465146E7FB0201C5F313044FEA37
:10C9F0000B3343EA14534FEA0432019C43EA060323
:10CA0000A4F10C040294009CCDE900B400F06FFA8C
:10CA100003B0BDE8F08F00200146F9E72DE9F04DA5
:10CA200081EA030404F0004B21F0004514464FF066
:10CA3000000A23F0004150EA050220D054EA010226
:10CA40001DD0C5F30A570246C5F31303C1F3130003
:10CA5000C1F30A5640F4801543F48013A7EB06088F
:10CA6000101BD64608F2FD3873EB050002D308F11F
:10CA7000010801E092185B41B8F1000F03DA0020D1
:10CA80000146BDE8F08D00204FF480110646844633
:10CA90000EE0171B73EB050705D3121B63EB0503B1
:10CAA00006434CEA010C49084FEA300092185B41FA
:10CAB00050EA0107EDD152EA030012D082EA0400E5
:10CAC00083EA0501084305D0101BAB4106D20122C1
:10CAD000002306E000224FF0004302E06FF0010265
:10CAE00053101AEB06004CEB085110EB0A0041EB17
:10CAF0000B01BDE8F04D00F0EBB90EB5C10F80EAB7
:10CB0000E0700844CA07002140F233438DE80E006C
:10CB10000A460B4600F0EBF903B000BD3EB5CA175C
:10CB2000CB0F002450405140C0186141DA0740F259
:10CB300033430094CDE901232246234600F0D7F980
:10CB400003B030BD70B5C1F30A5201F000450024B6
:10CB5000C1F3130140F2FF3341F480119A4201DA2C
:10CB6000002070BD40F233439A42A2F2334203DC0C
:10CB7000524200F0B0F800E090402C43F1D0404227
:10CB800070BD70B5C1F30A5201F000450024C1F335
:10CB9000130140F2FF3341F480119A4202DA00207F
:10CBA000014670BD40F233439A42A2F2334203DCA5
:10CBB000524200F090F801E000F07EF82C43F0D0F3
:10CBC0000023D0EB030063EB010170BD00F00042D5
:10CBD00030F000400AD0C10D01F56071C0F31600BD
:10CBE00042EA0151C2084007114370470020014644
:10CBF0007047000030B5041E71F1000404DB4FF0F3
:10CC00000044404264EB0101141E73F1000405DB93
:10CC10001C464FF00043524263EB04038B4208BFB3
:10CC2000824230BD30B5041E71F1000404DB4FF0C8
:10CC30000044404264EB0101141E73F1000405DB63
:10CC40001C464FF00043524263EB0403994208BF75
:10CC5000904230BD01F0004330B421F0004150EA71
:10CC6000010206D00A0DA2F56072C1F31301002A79
:10CC700002DC30BC00207047440F44EAC104C1000C
:10CC8000E01830BC00EBC25000F0CDB830B50B4618
:10CC9000014600202022012409E021FA02F59D42EC
:10CCA00005D303FA02F5491B04FA02F52844151EC0
:10CCB000A2F10102F1DC30BD202A04DB203A00FAA7
:10CCC00002F1002070479140C2F1200320FA03F3E3
:10CCD000194390407047202A04DB203A21FA02F0E1
:10CCE0000021704721FA02F3D040C2F120029140A6
:10CCF000084319467047202A06DBCB17203A41FA31
:10CD000002F043EAE07306E041FA02F3D040C2F1D8
:10CD100020029140084319467047000000487047C0
:10CD2000AC2703002DE9F05F824600780027154606
:10CD30008B460AF10104B946302801D09DB113E0B9
:10CD400014F8010B0127782803D0582801D045B1E9
:10CD50000AE00DB1102D07D10027102514F8010BA2
:10CD600002E0082500E00A250026B0460EE005FB9B
:10CD7000080005FB06F1012701EB10461FFA80F8B9
:10CD8000B6F5803F00D3B94614F8010B294600F0F0
:10CD90004DF90028EBDABBF1000F05D00FB1641E8E
:10CDA00000E05446CBF80040B9F1000F06D022F065
:10CDB00007FE02210160C81EBDE8F09F48EA064058
:10CDC000FAE77CB50023CDE900330546684600F05C
:10CDD00056F96946284623F03BFA7CBD0048704767
:10CDE000740500202DE9F0410646FFF7F7FF804665
:10CDF000454613E016B1E068B0420ED120682860C5
:10CE0000D4E90101D8F800708847204624F04AF997
:10CE1000D8F80000B842EBD100E025462C68002C81
:10CE2000E8D1BDE8F0810029A8BF7047401C490047
:10CE300008BF20F00100704710B4B0FA80FC00FA7F
:10CE40000CF050EA010404BF10BC704749B1CCF1AA
:10CE5000200421FA04F411FA0CF118BF0121214336
:10CE60000843A3EB0C01CB1D4FEA00614FEA1020F1
:10CE700042BF002010BC704700EBC3501044002993
:10CE8000A4BF10BC7047401C490008BF20F001003F
:10CE900010BC704710B541000CD0C0F3C7519629A3
:10CEA00008DC7E2909DC06DB410204D000F00040EA
:10CEB00040F07E5010BD002010BDC1F19604C4F1B9
:10CEC000200100FA01F1E040FFF7ADFFA04010BDE6
:10CED00010B5141E73F1000408DA401C41F1000182
:10CEE00092185B411A4301D120F0010010BD2DE9D9
:10CEF000F04D92469B4611B1B1FA81F202E0B0FAD0
:10CF000080F220329046FFF7D7FE04460F4640EAF3
:10CF10000A0041EA0B0153465A46084313D0114612
:10CF200053EA010019D0C8F140025046FFF7D3FE82
:10CF300005460E46504659464246FFF7BDFE084399
:10CF400005D0012004E020463946BDE8F08D0020E0
:10CF5000054346EAE0762C4337430A986305E40A22
:10CF6000A0EB08000022FD0A44EA47540A3002D52B
:10CF700000200146E9E7010510196941DDE908458E
:10CF800000196941BDE8F04DA2E7C1F30A52C1F3AF
:10CF9000130140F2FF3341F480119A4202DA00207B
:10CFA0000146704740F233439A42A2F2334202DC18
:10CFB0005242FFF790BEFFF77FBE10B500F000446D
:10CFC00020F00040C20DC0F3160040F400007F2A9C
:10CFD00007DA7D2A00DA7D22763A00FA02F1002093
:10CFE00008E0962A09DCA2F1760100FA01F1C2F10B
:10CFF0009602D040FFF717FF01E0963A9040002CD0
:10D0000000D0404210BD0000064C074D06E0E0682D
:10D0100040F0010394E8070098471034AC42F6D37F
:10D02000FFF702FA102C0300302C03003A2800D23C
:10D03000303820F02002412A01D3A2F13700884283
:10D0400001D34FF0FF3070470FB4002300B589B013
:10D050000CA900910B996FF00042CB601E4B069318
:10D060001E4B07930423CDE901321D4A0892024664
:10D070006B46002000F0CCF809B05DF814FB70B5E9
:10D0800086B006464FF0FF300091CDE90101002047
:10D0900015460C4604903246694604A8FFF7D4FFB3
:10D0A00002460498211825B108B1084600E0204640
:10D0B0002860049800280DD0002A02DD00988842DC
:10D0C00008D0081B0094CDE901043246694604A843
:10D0D000FFF7BAFF06B070BD49D4000067D4000066
:10D0E000C1110300704700002DE9FF4F087883B09D
:10D0F0009946FF2805D0491C2D2804D00024002083
:10D1000008E000200BE00124F9E700EB800003EBCE
:10D110004000491C0B78FF2BF7D104B1404200239B
:10D120000293147819461D462D2C01D02B2C04D1C6
:10D13000521C2D2C13D000240294AA461478FF2CE4
:10D140000FD00A25A3FB057801FB05814FF0000CE9
:10D1500003FB0C11521CE3194AEB0101EEE7012419
:10D16000EAE7814453EA010002D019F5C87F06DAE4
:10D1700003980021C0E9001107B0BDE8F08F002539
:10D18000AE4E2F46DFF8B882184600F09FF9CDE981
:10D190000001B9F1000002DAC9F1000400E0044620
:10D1A0000023A74A1AEB030B42EB045A12E0E007F4
:10D1B00007D02A46334638464146FFF7BDFB0746AF
:10D1C00088462A46334610461946FFF7B5FB054602
:10D1D0000E466410002CEAD1DDE90001B9F1000F20
:10D1E0005A46534606DAFFF719FC3A464346FFF71C
:10D1F00015FC05E0FFF7A0FB3A464346FFF79CFB12
:10D20000029A0AB181F00041039AC2E90001B3E732
:10D210002DE9FF4F1F468DB0D7E901464FF0FF388B
:10D220002E2045464FF000090B90B9696D1C0E98F1
:10D230008847396A824688470028F6D1BAF1FF3F0D
:10D240000AD024F4D064002E11DDBAF12B0F08D0DF
:10D25000BAF12D0F0BD102E0404611B08DE744F436
:10D260008064B9696D1C0E9888478246761E6946AF
:10D27000600501D52D2000E02B208DF8000001F184
:10D28000010B0DF1200809E0B9696D1C0E98884763
:10D2900082460F9844F40074761E0560002E02DD6D
:10D2A000BAF1300FF0D00B998A453ED144F080049A
:10D2B00006E00F99681CA9F1010944F400740860A4
:10D2C000B9696D1C761E0E98884782463028F0D0CA
:10D2D0002BE00B998A4505D1200603D444F0800445
:10D2E000761E18E0504623F05BFA08B30DF11301E7
:10D2F000761E44F400748B4508D2AAF130000BF876
:10D30000010B200607D5A9F1010003E0200602D495
:10D3100009F101008146A00502D50F99681C08603B
:10D32000B9696D1C0E9888478246002ED1DC53E007
:10D33000002E51DDBAF1650F02D0BAF1450F4BD185
:10D34000A00549D5B9696D1C24F44074761E0E9869
:10D3500088478246002E0CDD2B2804D0BAF12D0F11
:10D3600007D144F48074B9696D1C0E9888478246D1
:10D37000761EE00501D52D2100E02B2108F8011BC8
:10D38000CDF82C8021E00DF12901761E44F40074C3
:10D3900088450CD2AAF1300010F0FF0088F8000098
:10D3A00002D10B99884509D908F1010806E0E0058A
:10D3B00001D5244801E042F20F708146B9696D1C25
:10D3C0000E98884782460F980560002E04DD50466F
:10D3D00023F0E6F90028D6D1F9690E988847FF2096
:10D3E0008BF8000088F800000020069007904B465C
:10D3F0006A4608A906A8FFF777FEA00502D46FF0D9
:10D4000001002AE714F0240F0AD0E00714D1DDE967
:10D4100006123868031D3B600068C0E900120BE08B
:10D42000DDE90601FFF716FC0146E00704D1386884
:10D43000021D3A600068016028460EE700001440B3
:10D440000000F03FF1D8FFFF426842B1016811F8D7
:10D45000013B23B1521EC0E900121846704701215A
:10D46000C160881E704742685AB1C368016843B9F9
:10D4700083688B4205D0491E521CC0E9001200206F
:10D4800070474FF0FF3070470020704710B5431AC7
:10D49000934209D28318881803E010F8011D03F89D
:10D4A000011D521EF9D210BD40EA01039B0703D0B3
:10D4B00009E008C9121F08C0042AFAD203E011F8D3
:10D4C000013B00F8013B521EF9D210BD0EB540F2EF
:10D4D000334202920022CDE900221346FFF707FDF6
:10D4E00003B000BD70B58C1810F8015B15F0070390
:10D4F00001D110F8013B2A1106D110F8012B03E0ED
:10D5000010F8016B01F8016B5B1EF9D12B0705D4F4
:10D510000023521E0DD401F8013BFAE710F8013B3D
:10D52000CB1A921C03E013F8015B01F8015B521E59
:10D53000F9D5A142D8D3002070BD000010B5044633
:10D540000A23202202490348FEF798FF10BD00007D
:10D55000EDB00200C01300202DE9F04102460B4659
:10D560000420002A4CD0002B4AD01F79012F47DC21
:10D57000244FBA421AD11F68C7F310011F7957B957
:10D5800097891FFA81FC47EA0C079781D78947EAF8
:10D590001147D7811CE0178A1FFA81FC47EA0C0764
:10D5A0001782578A47EA1147578211E01F88C7F34D
:10D5B00008011F7937B997891FFA81FC47EA0C07E0
:10D5C000978105E0178A1FFA81FC47EA0C0717824A
:10D5D0000024002502F120060FE001F001074FB101
:10D5E0002F4605F1010C0CF0FF05D3F8088018F860
:10D5F000077037554908671CFCB20029EDD100209F
:10D60000BDE8F0810000044010B502460420FAB1E4
:10D61000F1B1002313700C78538864F30513538021
:10D620004C78538864F3C71353808C78538864F321
:10D6300086135380CC78538864F3010353800C79AC
:10D64000938864F382039380002382F8473000209C
:10D6500010BD0146042011B101220A70002070475C
:10D6600010B50346042063B101290ADC21B95C89A5
:10D6700062F3C7145C8103E05C8962F3CF345C81A0
:10D68000002010BD10B5AFF3008010BD70B50021B3
:10D6900000220024002300287ED0434D2D7805F081
:10D6A0000705052D15D2DFE805F00306090D10006A
:10D6B0003E4D05603BE03E4D056038E04FF40045CF
:10D6C000056034E03A4D056031E04FF400450560F7
:10D6D0002DE0354DDA352D68C5F3C013324D263DAA
:10D6E000D5F800512A0F304DDA352D68C5F30821E1
:10D6F0002D4D263DD5F8005105F01F0453B9651C8A
:10D700002B4EB6FBF5F54E1C7543561CB5FBF6F5D6
:10D7100005600BE0012B09D1651C244EB6FBF5F525
:10D720004E1C7543561CB5FBF6F5056000BF00BFE7
:10D730001D4E263E0568366AC6F30266F540456012
:10D74000194E263E0568366AC6F30256F5408560D6
:10D75000154E263E0568366A06F00706F540C56098
:10D76000114E263E0568366AC6F30216F54005617D
:10D770000D4E263E0568366AC6F30226F540456121
:10D78000094E263E0568366AC6F30236F5408561C5
:10D79000054E263E056800E004E0366AC6F3024600
:10D7A000F540C56170BD0000264005400024F4002E
:10D7B00000127A00014631B101290DD0022914D09E
:10D7C000032924D11AE0184A127802F0010282F0EB
:10D7D000010282F0010024E0134A1278C2F3C00271
:10D7E00082F0010282F001001BE00F4A1278C2F3BE
:10D7F000401282F0010282F0010012E00A4A12781F
:10D80000C2F3801282F0010282F0010009E0064AB0
:10D81000521D127802F0010282F0010282F0010032
:10D8200000BF00BF704700003C4005400248007840
:10D8300000F00700704700002640054038B5044658
:10D840000020009000251F4800884AF2015108433B
:10D850001D49A1F8FE0394B91B482630007800F05A
:10D860000700052801D101251FE017482A3000785C
:10D8700020F00100401C144981F82A0015E01248EC
:10D880002A30007820F001000F4981F82A0000BFFB
:10D890000220FFF78FFF03460098401C009000987D
:10D8A000B0F5805F01D2012BF2D1064800884FF617
:10D8B000FE71084040F425400349A1F8FE032846C4
:10D8C00038BD0000FE4305400040054000283ED022
:10D8D0001F4909884AF2015211431D4A11800178FB
:10D8E000491E1C4AD2F8002161F31F721A490A60CE
:10D8F0000179491E174AD2F8002161F31B621649CB
:10D900000A60017A491E134AD2F8002161F31752C6
:10D9100011490A608189491E0E4AD2F8002161F33B
:10D9200010220D490A60017C491E0A4AD2F80021E2
:10D9300061F304020749C1F80021B1F8FE134FF664
:10D94000FE72114041F42541024AA2F8FE137047CD
:10D95000FE43054000400540004105400B49098851
:10D960004AF2025211430A4AA2F8FE131146098AEA
:10D9700060F303011182054909884FF6FD721140D9
:10D9800041F42541024AA2F8FE137047FE430540C8
:10D99000004005400D4909884AF2015211430C4AE2
:10D9A000A2F8FE131146D1F8001160F3C711C2F8B6
:10D9B00000111146B1F8FE134FF6FE72114041F40A
:10D9C0002541034AA2F8FE1370470000FE430540BC
:10D9D0000040054010B586B00446002005902E4852
:10D9E000006804902C48406803902B48806802909F
:10D9F0002948C06801902948007800F007000528F0
:10DA000001D0052C0DD1264823490860C01248607A
:10DA10008860C86000BF0598401C05900598B02834
:10DA2000F9D3204800884AF2015108431B4926399E
:10DA3000A1F8FE03084690F8260064F3020081F87E
:10DA400026000846B0F8FE034FF6FE71084040F489
:10DA5000254012492639A1F8FE030020059000BF99
:10DA60000598401C05900598B028F9D30A490498F8
:10DA7000086003984860029888600198C860002098
:10DA8000059000BF0598401C05900598B028F9D373
:10DA900004F09CFB06B010BD008004402640054009
:10DAA000EEFAFFFFFE43054085B0002104913449A2
:10DAB00009680391324949680291314989680191A5
:10DAC0002F49C9680091002858D02E49097801F0E3
:10DAD000070105290DD12C49294A1160C91251604D
:10DAE0009160D16000BF0499491C04910499B02948
:10DAF000F9D3264909884AF201521143234A118079
:10DB00008178C27841EA0211027941EA0221427920
:10DB100041EA0231827941EA0241427841EA025106
:10DB2000027841EA026141EA0271164A263A11621C
:10DB3000164909884FF6FE72114041F42541114AF9
:10DB4000263AA2F8FE130021049100BF0499491C53
:10DB500004910499B029F9D3094A039911600299F3
:10DB60005160019991600099D1600021049100BF3A
:10DB70000499491C04910499B029F9D305B0704760
:10DB80000080044026400540EEFAFFFFFE430540BA
:10DB900018B5034600200090194800884AF2015148
:10DBA00008431849A1F8FE03012B01D0012000E031
:10DBB000002014492E31097860F30001114880F8E3
:10DBC0002E100F4800884FF6FE71084040F42540A3
:10DBD0000C49A1F8FE0300BF0320FFF7EBFD04464C
:10DBE0000098401C00900098B0F5805F06D2012B91
:10DBF00001D1012000E00020A042EDD1002018BD9D
:10DC0000FE4305400040054000283ED01F490988DA
:10DC10004AF2015211431D4A11800178491E1C4AE3
:10DC2000D2F8042161F31F721A490A600179491E72
:10DC3000174AD2F8042161F31B6216490A60017A7F
:10DC4000491E134AD2F8042161F3175211490A60A0
:10DC50008189491E0E4AD2F8042161F310220D4930
:10DC60000A60017C491E0A4AD2F8042161F30402C9
:10DC70000749C1F80421B1F8FE134FF6FE721140B6
:10DC800041F42541024AA2F8FE137047FE430540C5
:10DC9000004005400441054038B50446002000908E
:10DCA00000252A4800884AF2015108432849A1F872
:10DCB000FE034CBB26482630007800F007000328FE
:10DCC00001D1012536E023480068C0F3C01088B9AF
:10DCD0001F482A30007800F0010008B9012529E02A
:10DCE0001B483230007820F00100401C184981F8B0
:10DCF00032001FE016483230007820F00100401C4E
:10DD0000134981F8320015E011483230007820F0D4
:10DD100001000F4981F8320000BF0120FFF74AFDE2
:10DD200003460098401C00900098B0F5805F01D237
:10DD3000012BF2D1054800884FF6FE71084040F4EF
:10DD400025400349A1F8FE03284638BDFE4305409F
:10DD5000004005400041054058B3164909884AF281
:10DD600001521143134A1180027812491231097885
:10DD700062F3C7110F4A1232117042780D49123105
:10DD8000097862F386110B4A1232117082780949C0
:10DD90001231097862F30511064A123211700549F1
:10DDA00009884FF6FE72114041F42541024AA2F85B
:10DDB000FE137047FE4305400040054010B500BF0C
:10DDC00000F15C0303EB81131B6823F00303147859
:10DDD000234300F15C0404EB8114236000BF00BF07
:10DDE00000F15C0303EB81131B6823F00C035478F0
:10DDF00043EA840400F15C0303EB81131C6000BF61
:10DE000000BF00F15C0303EB81131B6823F01003D8
:10DE1000947843EA041400F15C0303EB81131C6063
:10DE200000BF00BF00F15C0303EB81131B6823F00C
:10DE30002003D47843EA441400F15C0303EB81131C
:10DE40001C6000BF00BF00F15C0303EB81131B6883
:10DE500023F04003147943EA841400F15C0303EBDC
:10DE600081131C6000BF00BF00F15C0303EB811352
:10DE70001B6823F08003547943EAC41400F15C0367
:10DE800003EB81131C6000BF00BF00F15C0303EBD8
:10DE900081131B6823F44073947943EA042400F14E
:10DEA0005C0303EB81131C6000BF00BF00F15C0347
:10DEB00003EB81131B6823F48063D47943EA842441
:10DEC00000F15C0303EB81131C6000BF00BF00F195
:10DED0005C0303EB81131B6823F40063147A43EAA9
:10DEE000C42400F15C0303EB81131C6000BF00BF7E
:10DEF00000F15C0303EB81131B6823F48053547A15
:10DF000043EA043400F15C0303EB81131C6000BF9F
:10DF100010BD0000F0B503461546002200265F48FC
:10DF2000007800286FD101205C4F3870DF6988408D
:10DF300027EA0006002E67D0D86900F00100D8B1AA
:10DF4000D1B1986C040C986E0A27B7EB104F13D31D
:10DF5000986EB4EB104F0FD909E0501C82B2B2F5A5
:10DF6000A04F04D900204D4F38700920F0BDD8696A
:10DF700000F001000028F0D1D86900F0020002286A
:10DF800020D101291ED0D3F88800040CD3F8A800B2
:10DF90000A27B7EB104F15D3D3F8A800B4EB104FF6
:10DFA00010D9002209E0501C82B2B2F5A04F04D96A
:10DFB00000203A4F38700920D8E7D86900F00200F5
:10DFC0000028F0D1D86900F00400042822D10229E9
:10DFD00020D00022D3F8C800040CD3F8E8000A27A8
:10DFE000B7EB104F16D3D3F8E800B4EB104F11D9AC
:10DFF0000BE0501C82B2B2F5A04F06D90020274F8B
:10E0000038700920B2E746E02AE0D86900F0040041
:10E010000028EED1D86900F00800082820D1032993
:10E020001ED00022D3F80801040CD3F828010A27D7
:10E03000B7EB104F14D3D3F82801B4EB104F0FD91E
:10E0400009E0501C82B2B2F5A04F04D90020134F52
:10E05000387009208AE7D86900F008000028F0D15C
:10E060004DB1012D12D1D86901278F4007F00F075C
:10E070003843D8610AE0D86901278F404FF00F0C70
:10E080002CEA070C00EA0C00D86100BF00BF00209A
:10E09000024F38706AE7012068E7000000000020A6
:10E0A00070B50346002039B1012905D0022903D0FB
:10E0B000032901D0042026E032B1012A0AD0022A25
:10E0C00010D0032A1CD113E05C6901258D402C433C
:10E0D0005C6117E05C6901F110050126AE40344334
:10E0E0005C610FE09C6901258D402C439C6109E037
:10E0F0009C6901F110050126AE4034439C6101E0AA
:10E10000042000BF00BF70BD026861F3000202601E
:10E110007047000070B505460C461646012128469A
:10E12000FFF7F2FF05F15C0000EB8410006820F4BB
:10E13000805105F15C0000EB8410016005F14000A6
:10E1400000EB84107168016005F1440000EB84105D
:10E15000B168016000BF05F1480000EB8410006861
:10E160006FF309003188084305F1480101EB841180
:10E17000086000BF00BF718805F1480000EB841003
:10E18000006861F31F4005F1480101EB841108604C
:10E1900000BF00BF05F14C0000EB841000686FF376
:10E1A0000900B189084305F14C0101EB84110860B5
:10E1B00000BF00BF05F14C0000EB841000682B4944
:10E1C0000840F18940EA014105F14C0000EB841060
:10E1D000016000BF00BF05F1500000EB8410006833
:10E1E0006FF313007169084305F1500101EB8411CD
:10E1F000086000BF00BF318B05F1500000EB8410B8
:10E20000006861F31F5005F1500101EB84110860B3
:10E2100000BF00BF05F1540000EB841000686FF3ED
:10E220001300F169084305F1540101EB8411086002
:10E2300000BF00BF318C05F1540000EB8410006872
:10E2400061F31F5005F1540101EB8411086000BF18
:10E2500005F1580000EB84103169016006F12402D9
:10E2600021462846FFF7AAFD70BD0000FFFF00FC15
:10E2700010B5094B984205D1084C04EB8103C3F853
:10E28000142807E0064B984204D1044C04EB8103A8
:10E29000C3F8242810BD00000030054000000140F4
:10E2A0000034054008B5002200920021094A116897
:10E2B00042F21072B1FBF2F106E0009100BF009A49
:10E2C000531E0093002AFAD1021EA0F10100F4D1DE
:10E2D00008BD00000800002008B5012200210091BF
:10E2E0000D4909680D4B994210D90B490968B1FBDA
:10E2F000F3F206E0009200BF00994B1E0093002944
:10E30000FAD1011EA0F10100F4D104E000BF011E0A
:10E31000A0F10100FBD108BD080000208096980004
:10E3200010B5AFF3008010BD7047000004480068CE
:10E33000006840F001000249096808607047000069
:10E34000380300200349096860F31041014A116055
:10E35000704700000804014004480068012804D107
:10E3600043F2102001490860086070470004014032
:10E370000349096860F30711014A11607047000002
:10E380000804014040F223100249086043F21020C3
:10E39000086070470004014010B5024610780A4B2F
:10E3A000042414FB00315378086863F3C710086035
:10E3B0009378086863F305100860D378086863F3FE
:10E3C00001000860002010BD1010054001460448FF
:10E3D000806D01228A401043014A906500207047F9
:10E3E000001005400146064A526D01238B401A4039
:10E3F0000AB9012200E0002282F00100704700000B
:10E400000010054010B505201BF0E4FD0446204631
:10E41000FFF7E8FF012807D12046FFF7D7FF00BF2D
:10E4200020F050FD00BF00BF10BD10B506201BF04E
:10E43000D1FD04462046FFF7D5FF012807D120462D
:10E44000FFF7C4FF00BF20F03DFD00BF00BF10BDBF
:10E4500010B507201BF0BEFD04462046FFF7C2FFA3
:10E46000012807D12046FFF7B1FF00BF20F02AFDA9
:10E4700000BF00BF10BD10B5AFF3008010BD00009D
:10E4800010B50348006810B101490868804710BD05
:10E490008405002010B50348406810B10149486860
:10E4A000804710BD8405002010B50348806810B176
:10E4B00001498868804710BD8405002010B50348D5
:10E4C000C06810B10149C868804710BD84050020AC
:10E4D00010B50348006910B101490869804710BDB3
:10E4E0008405002010B50348406910B1014948690E
:10E4F000804710BD8405002010B50348806910B125
:10E5000001498869804710BD8405002010B5034883
:10E51000C06910B10149C869804710BD8405002059
:10E5200010B50348006A10B10149086A804710BD60
:10E530008405002010B50348406A10B10149486ABB
:10E54000804710BD8405002010B50348806A10B1D3
:10E550000149886A804710BD8405002010B5034832
:10E56000C06A10B10149C86A804710BD8405002007
:10E5700010B50348006B10B10149086B804710BD0E
:10E580008405002010B50348406B10B10149486B69
:10E59000804710BD8405002010B50348806B10B182
:10E5A0000149886B804710BD8405002010B50348E1
:10E5B000C06B10B10149C86B804710BD84050020B5
:10E5C00010B50348006C10B10149086C804710BDBC
:10E5D0008405002010B50348406C10B10149486C17
:10E5E000804710BD8405002010B50348806C10B131
:10E5F0000149886C804710BD8405002010B5034890
:10E60000C06C10B10149C86C804710BD8405002062
:10E6100010B50348006D10B10149086D804710BD69
:10E620008405002010B50348406D10B10149486DC4
:10E63000804710BD8405002010B50348806D10B1DF
:10E640000149886D804710BD8405002010B503483E
:10E65000C06D10B10149C86D804710BD8405002010
:10E6600010B50348006E10B10149086E804710BD17
:10E670008405002010B50348406E10B10149486E72
:10E68000804710BD8405002010B50348806E10B18E
:10E690000149886E804710BD8405002010B50348ED
:10E6A000C06E10B10149C86E804710BD84050020BE
:10E6B00010B50348006F10B10149086F804710BDC5
:10E6C0008405002010B50348406F10B10149486F20
:10E6D000804710BD8405002010B50348806F10B13D
:10E6E0000149886F804710BD8405002010B503489C
:10E6F000C06F10B10149C86F804710BD840500206C
:10E7000010B50448D0F8800018B10249D1F8800053
:10E71000804710BD8405002010B50448D0F884005F
:10E7200018B10249D1F88400804710BD840500204B
:10E7300010B50448D0F8880018B10249D1F8880013
:10E74000804710BD8405002010B50448D0F88C0027
:10E7500018B10249D1F88C00804710BD8405002013
:10E7600010B50448D0F8900018B10249D1F89000D3
:10E77000804710BD8405002010B50448D0F89400EF
:10E7800018B10249D1F89400804710BD84050020DB
:10E7900010B50448D0F8980018B10249D1F8980093
:10E7A000804710BD8405002010B50448D0F89C00B7
:10E7B00018B10249D1F89C00804710BD84050020A3
:10E7C00010B50448D0F8A00018B10249D1F8A00053
:10E7D000804710BD8405002010B50448D0F8A4007F
:10E7E00018B10249D1F8A400804710BD840500206B
:10E7F00010B50448D0F8A80018B10249D1F8A80013
:10E80000804710BD8405002010B50448D0F8AC0046
:10E8100018B10249D1F8AC00804710BD8405002032
:10E8200010B50448D0F8B00018B10249D1F8B000D2
:10E83000804710BD8405002010B50448D0F8B4000E
:10E8400018B10249D1F8B400804710BD84050020FA
:10E8500010B50448D0F8B80018B10249D1F8B80092
:10E86000804710BD8405002010B50448D0F8BC00D6
:10E8700018B10249D1F8BC00804710BD84050020C2
:10E8800010B50448D0F8C00018B10249D1F8C00052
:10E89000804710BD8405002010B50448D0F8C4009E
:10E8A00018B10249D1F8C400804710BD840500208A
:10E8B00010B50448D0F8C80018B10249D1F8C80012
:10E8C000804710BD8405002010B50448D0F8CC0066
:10E8D00018B10249D1F8CC00804710BD8405002052
:10E8E00010B50448D0F8D00018B10249D1F8D000D2
:10E8F000804710BD8405002010B50448D0F8D4002E
:10E9000018B10249D1F8D400804710BD8405002019
:10E9100010B50448D0F8D80018B10249D1F8D80091
:10E92000804710BD8405002010B50448D0F8DC00F5
:10E9300018B10249D1F8DC00804710BD84050020E1
:10E9400010B50448D0F8E00018B10249D1F8E00051
:10E95000804710BD8405002010B50448D0F8E400BD
:10E9600018B10249D1F8E400804710BD84050020A9
:10E9700010B50448D0F8E80018B10249D1F8E80011
:10E98000804710BD8405002010B50448D0F8EC0085
:10E9900018B10249D1F8EC00804710BD8405002071
:10E9A00010B50448D0F8F00018B10249D1F8F000D1
:10E9B000804710BD8405002010B50448D0F8F4004D
:10E9C00018B10249D1F8F400804710BD8405002039
:10E9D00010B50448D0F8F80018B10249D1F8F80091
:10E9E000804710BD8405002010B50448D0F8FC0015
:10E9F00018B10249D1F8FC00804710BD8405002001
:10EA000010B50448D0F8000118B10249D1F800014E
:10EA1000804710BD8405002010B50448D0F80401DB
:10EA200018B10249D1F80401804710BD84050020C7
:10EA300010B50448D0F8080118B10249D1F808010E
:10EA4000804710BD8405002010B50448D0F80C01A3
:10EA500018B10249D1F80C01804710BD840500208F
:10EA600010B50448D0F8100118B10249D1F81001CE
:10EA7000804710BD8405002010B50448D0F814016B
:10EA800018B10249D1F81401804710BD8405002057
:10EA900010B50448D0F8180118B10249D1F818018E
:10EAA000804710BD8405002010B50448D0F81C0133
:10EAB00018B10249D1F81C01804710BD840500201F
:10EAC00010B50448D0F8200118B10249D1F820014E
:10EAD000804710BD8405002010B50448D0F82401FB
:10EAE00018B10249D1F82401804710BD84050020E7
:10EAF00010B50448D0F8280118B10249D1F828010E
:10EB0000804710BD8405002010B50448D0F82C01C2
:10EB100018B10249D1F82C01804710BD84050020AE
:10EB200010B50448D0F8300118B10249D1F83001CD
:10EB3000804710BD8405002010B50448D0F834018A
:10EB400018B10249D1F83401804710BD8405002076
:10EB500010B50448D0F8380118B10249D1F838018D
:10EB6000804710BD8405002010B50448D0F83C0152
:10EB700018B10249D1F83C01804710BD840500203E
:10EB800010B50448D0F8400118B10249D1F840014D
:10EB9000804710BD8405002010B50448D0F844011A
:10EBA00018B10249D1F84401804710BD8405002006
:10EBB00010B50448D0F8480118B10249D1F848010D
:10EBC000804710BD8405002010B50448D0F84C01E2
:10EBD00018B10249D1F84C01804710BD84050020CE
:10EBE00010B50448D0F8500118B10249D1F85001CD
:10EBF000804710BD8405002010B50448D0F85401AA
:10EC000018B10249D1F85401804710BD8405002095
:10EC100010B50448D0F8580118B10249D1F858018C
:10EC2000804710BD8405002010B50448D0F85C0171
:10EC300018B10249D1F85C01804710BD840500205D
:10EC400010B50448D0F8600118B10249D1F860014C
:10EC5000804710BD8405002010B50448D0F8640139
:10EC600018B10249D1F86401804710BD8405002025
:10EC700010B50448D0F8680118B10249D1F868010C
:10EC8000804710BD8405002010B50448D0F86C0101
:10EC900018B10249D1F86C01804710BD84050020ED
:10ECA00010B50448D0F8700118B10249D1F87001CC
:10ECB000804710BD8405002010B50448D0F87401C9
:10ECC00018B10249D1F87401804710BD84050020B5
:10ECD00010B50448D0F8780118B10249D1F878018C
:10ECE000804710BD8405002010B50448D0F87C0191
:10ECF00018B10249D1F87C01804710BD840500207D
:10ED000010B50448D0F8800118B10249D1F880014B
:10ED1000804710BD8405002010B50448D0F8840158
:10ED200018B10249D1F88401804710BD8405002044
:10ED300010B50448D0F8880118B10249D1F888010B
:10ED4000804710BD8405002010B50448D0F88C0120
:10ED500018B10249D1F88C01804710BD840500200C
:10ED600010B50448D0F8900118B10249D1F89001CB
:10ED7000804710BD8405002010B50448D0F89401E8
:10ED800018B10249D1F89401804710BD84050020D4
:10ED900010B50448D0F8980118B10249D1F898018B
:10EDA000804710BD8405002010B50448D0F89C01B0
:10EDB00018B10249D1F89C01804710BD840500209C
:10EDC00010B50448D0F8A00118B10249D1F8A0014B
:10EDD000804710BD8405002010B50448D0F8A40178
:10EDE00018B10249D1F8A401804710BD8405002064
:10EDF00010B50448D0F8A80118B10249D1F8A8010B
:10EE0000804710BD8405002010B50448D0F8AC013F
:10EE100018B10249D1F8AC01804710BD840500202B
:10EE200010B50448D0F8B00118B10249D1F8B001CA
:10EE3000804710BD8405002010B50448D0F8B40107
:10EE400018B10249D1F8B401804710BD84050020F3
:10EE500010B50448D0F8B80118B10249D1F8B8018A
:10EE6000804710BD8405002010B50448D0F8BC01CF
:10EE700018B10249D1F8BC01804710BD84050020BB
:10EE800010B50448D0F8C00118B10249D1F8C0014A
:10EE9000804710BD8405002010B50448D0F8C40197
:10EEA00018B10249D1F8C401804710BD8405002083
:10EEB00010B50448D0F8C80118B10249D1F8C8010A
:10EEC000804710BD8405002010B50448D0F8CC015F
:10EED00018B10249D1F8CC01804710BD840500204B
:10EEE00010B50448D0F8D00118B10249D1F8D001CA
:10EEF000804710BD8405002010B50448D0F8D40127
:10EF000018B10249D1F8D401804710BD8405002012
:10EF100010B50448D0F8D80118B10249D1F8D80189
:10EF2000804710BD8405002010B50448D0F8DC01EE
:10EF300018B10249D1F8DC01804710BD84050020DA
:10EF400010B50448D0F8E00118B10249D1F8E00149
:10EF5000804710BD8405002010B50448D0F8E401B6
:10EF600018B10249D1F8E401804710BD84050020A2
:10EF700010B50448D0F8E80118B10249D1F8E80109
:10EF8000804710BD8405002010B50448D0F8EC017E
:10EF900018B10249D1F8EC01804710BD840500206A
:10EFA00010B50448D0F8F00118B10249D1F8F001C9
:10EFB000804710BD8405002010B50448D0F8F40146
:10EFC00018B10249D1F8F401804710BD8405002032
:10EFD00010B50448D0F8F80118B10249D1F8F80189
:10EFE000804710BD8405002010B50448D0F8FC010E
:10EFF00018B10249D1F8FC01804710BD84050020FA
:10F0000010B55148046851480068012804D104F043
:10F01000010008B1AFF300804C48001D00680128D2
:10F0200004D104F0020008B1AFF300804748083073
:10F030000068012804D104F0040008B1AFF3008097
:10F0400042480C300068012804D104F0080008B1DF
:10F05000AFF300803D4810300068012804D104F06F
:10F06000100008B1AFF30080384814300068012860
:10F0700004D104F0200008B1AFF300803348183009
:10F080000068012804D104F0400008B1AFF300800B
:10F090002E481C300068012804D104F0800008B11B
:10F0A000AFF30080294820300068012804D104F41F
:10F0B000807008B1AFF30080244824300068012834
:10F0C00004D104F4007008B1AFF300801F48283069
:10F0D0000068012804D104F4806008B1AFF3008017
:10F0E0001A482C300068012804D104F4006008B1EB
:10F0F000AFF30080154830300068012804D104F4D3
:10F10000805008B1AFF30080104834300068012807
:10F1100004D104F4005008B1AFF300800B4838303C
:10F120000068012804D104F4804008B1AFF30080E6
:10F1300006483C300068012804D104F4004008B1BE
:10F14000AFF3008010BD00005C120540800AA242AF
:10F1500070B5FE48046800260025FD4800680128B7
:10F160002BD1FC48006840B9FB480068012804D155
:10F1700004F0010008B1AFF30080F64840300068A9
:10F1800048B9F54840300068012804D104F4807083
:10F1900008B1AFF30080F148406800F00116EF4875
:10F1A000C1684FF0011020EA010506EA050020B110
:10F1B00004F4803008B1AFF30080E948006801280A
:10F1C0002DD1E448001D006848B9E348001D0068DF
:10F1D000012804D104F0020008B1AFF30080DD483B
:10F1E0004430006848B9DC4844300068012804D144
:10F1F00004F4007008B1AFF30080D848406800F014
:10F200000216D648C1684FF0021020EA010506EA4E
:10F21000050020B104F4803008B1AFF30080D1487C
:10F22000006801282DD1CB480830006848B9CA4889
:10F2300008300068012804D104F0040008B1AFF3DD
:10F240000080C4484830006848B9C3484830006866
:10F25000012804D104F4806008B1AFF30080BF48F6
:10F26000406800F00416BD48C1684FF0041020EA61
:10F27000010506EA050020B104F4803008B1AFF3BF
:10F280000080B948006801282DD1B2480C300068D0
:10F2900048B9B1480C300068012804D104F00800D6
:10F2A00008B1AFF30080AB484C30006848B9AA48B9
:10F2B0004C300068012804D104F4006008B1FFF765
:10F2C00035F8A648406800F00816A448C1684FF019
:10F2D000081020EA010506EA050020B104F4803098
:10F2E00008B1AFF30080A148006801282CD1A048E4
:10F2F000006840B99F480068012804D104F010005C
:10F3000008B1AFF300809A484030006848B9994886
:10F3100040300068012804D104F4805008B1AFF3F4
:10F3200000809548006800F0011693480830016895
:10F330004FF0011020EA010506EA050020B104F4AF
:10F34000003008B1AFF300808C48006801282ED14E
:10F350008748001D006848B98648001D00680128DC
:10F3600004D104F0200008B1AFF30080804844309D
:10F37000006848B9784844300068012804D104F492
:10F38000005008B1AFF300807B48006800F002161F
:10F390007948083001684FF0021020EA010506EABA
:10F3A000050020B104F4003008B1AFF300807448C8
:10F3B000006801282ED16E480830006848B96D48B1
:10F3C00008300068012804D104F0400008B1AFF310
:10F3D000008067484830006848B95F484830006896
:10F3E000012804D104F4804008B1AFF300806248E2
:10F3F000006800F004166048083001684FF00410FF
:10F4000020EA010506EA050020B104F4003008B145
:10F41000AFF300805B48006801282ED154480C30BF
:10F42000006848B953480C300068012804D104F042
:10F43000800008B1AFF300804D484C30006848B9F7
:10F4400045484C300068012804D104F4004008B15C
:10F45000AFF300804848006800F0081646480830BE
:10F4600001684FF0081020EA010506EA050020B106
:10F4700004F4003008B1AFF300804348006801286D
:10F4800009D14248006800F00F0020B104F4802048
:10F4900008B1AFF300803C4808300068012809D16A
:10F4A0003948EC380068012804D104F4002008B180
:10F4B000AFF300803448001D0068012809D13248AC
:10F4C000F0380068012804D104F4801008B1AFF3CB
:10F4D00000804FF01C40C068C0F3C01020B104F49D
:10F4E000800008B1AFF3008029488669456806EAC4
:10F4F000050000F07F0020B104F4000008B1AFF374
:10F5000000802448066823481438056806EA050088
:10F5100000F07F0020B104F0807008B1AFF30080EC
:10F520001D4806681C481438056806EA050000F006
:10F530007F0020B104F0007008B1AFF300801748DD
:10F5400006681648143805682AE000006012054075
:10F55000B00BA6420002A6420001A64200300540C0
:10F56000B013A642B01BA642B023A642B08BA6425F
:10F570000082A6420081A64204340540B093A64210
:10F58000B09BA642B0A3A6420083204210040140D3
:10F59000002005401824054018280540182C054077
:10F5A00006EA050000F07F0020B104F0806008B199
:10F5B000AFF3008070BD000010B52F4804682F48DD
:10F5C000D0F80802012808D12D480068012804D18C
:10F5D00004F0010008B1AFF3008029483838006812
:10F5E000012809D1264840300068012804D104F0E0
:10F5F000020008B1AFF3008022480068012809D159
:10F60000204878300068012804D104F0040008B1D3
:10F61000AFF300801B4840300068012809D1194829
:10F62000B8300068012804D104F0080008B1AFF335
:10F63000008015480068012809D11348203000686F
:10F64000012804D104F4001008B1AFF300800F4882
:10F65000006B012804D104F4800008B1AFF30080EE
:10F660000B48006800F4403020B104F4000008B1F9
:10F67000AFF3008010BD0000641205400000484256
:10F6800080024842088248420008A842008098420E
:10F690000494044070B5AA48046800260025A948CF
:10F6A0000068012808D1A8480068012804D104F0A6
:10F6B000010008B1AFF30080A248001D00680128D6
:10F6C00009D1A148001D0068012804D104F00200FE
:10F6D00008B1AFF300809B4808300068012809D1C9
:10F6E000994808300068012804D104F0040008B1EA
:10F6F000AFF3008093480C300068012809D192488C
:10F700000C300068012804D104F0080008B1AFF300
:10F7100000808C4810300068012809D18A481030D8
:10F720000068012804D104F0100008B1AFF3008094
:10F73000844814300068012809D1834814300068D7
:10F74000012804D104F0200008B1AFF300807D4807
:10F7500018300068012809D17B481830006801285A
:10F7600004D104F0400008B1AFF3008075481C30AC
:10F770000068012809D174481C300068012804D1B0
:10F7800004F0800008B1AFF300806E4820300068BC
:10F79000012809D16C4820300068012804D104F404
:10F7A000807008B1AFF300806848406D00F44030CD
:10F7B000C6096648006F00F4C06506EA050020B17E
:10F7C00004F4006008B1AFF300806048406D00F4BD
:10F7D0004020C6095D48006F00F4C05506EA0500E8
:10F7E00020B104F4805008B1AFF30080584800689D
:10F7F000012808D157480068012804D104F480305A
:10F8000008B1AFF300805248001D0068012809D1FB
:10F810005048001D0068012804D104F4003008B1EC
:10F82000AFF300804A4808300068012809D14948F0
:10F8300008300068012804D104F4802008B1AFF337
:10F84000008043480C300068012809D141480C3041
:10F850000068012804D104F4002008B1AFF300804F
:10F860003B4810300068012809D13A481030006840
:10F87000012804D104F4801008B1AFF300803448AB
:10F8800014300068012809D132481430006801287A
:10F8900004D104F4001008B1AFF300802C481830F4
:10F8A0000068012809D12B4818300068012804D1CC
:10F8B00004F4800008B1AFF3008025481C300068D4
:10F8C000012809D123481C300068012804D104F420
:10F8D000000008B1AFF300801D4820300068012807
:10F8E00009D11C4820300068012804D104F0807040
:10F8F00008B1AFF300801848006800F44030C60932
:10F9000015481C30006800F4C06506EA050020B107
:10F9100004F0006008B1AFF300800F48006800F405
:10F920004020C6090C481C30006800F4C05506EAA7
:10F93000050020B104F0805008B1AFF3008070BD25
:10F9400068120540800A3042000E304200800140BB
:10F95000808A3042008E30425484014070B557484E
:10F9600004680026002556480068012808D155483B
:10F970000068012804D104F0010008B1AFF3008051
:10F980004F48001D0068012809D14E48001D00683D
:10F99000012804D104F0020008B1AFF30080484808
:10F9A00008300068012809D146480830006801285D
:10F9B00004D104F0040008B1AFF3008040480C30DB
:10F9C0000068012809D13F480C300068012804D1A3
:10F9D00004F0080008B1AFF3008039481030006827
:10F9E000012809D1374810300068012804D104F0FB
:10F9F000100008B1AFF300803148143000680128CE
:10FA000009D1304814300068012804D104F02000E6
:10FA100008B1AFF300802A4818300068012809D1E6
:10FA2000284818300068012804D104F0400008B1CB
:10FA3000AFF3008022481C300068012809D121481A
:10FA40001C300068012804D104F0800008B1AFF335
:10FA500000801B4820300068012809D11948203057
:10FA60000068012804D104F4807008B1AFF300806D
:10FA70001548006800F44030C60913481C3000687F
:10FA800000F4C06506EA050020B104F4006008B186
:10FA9000AFF300800C48006800F44020C6090A4813
:10FAA0001C30006800F4C05506EA050020B104F4DB
:10FAB000805008B1AFF3008070BD00006C120540AB
:10FAC000800A3142000E31425488014070B5002452
:10FAD0000026BA480568BA48D0F8804004F480503F
:10FAE00038B104F4804020B105F0010008B1AFF353
:10FAF000008004F4005038B104F4004020B105F057
:10FB0000020008B1AFF30080AD4890300468AC4803
:10FB1000D0F89C6004EA0600C0B220B105F00400F1
:10FB200008B1AFF30080A748046804F4805038B1EE
:10FB300004F4804020B105F0080008B1AFF3008064
:10FB400004F4005038B104F4004020B105F0100076
:10FB500008B1AFF300809B481030046899481C300E
:10FB6000066804EA0600C0B220B105F0200008B122
:10FB7000AFF300809448046804F4805038B104F472
:10FB8000804020B105F0400008B1AFF3008004F4DC
:10FB9000005038B104F4004020B105F0800008B1F5
:10FBA000AFF3008088481030046887481C3006682E
:10FBB00004EA0600C0B220B105F4807008B1AFF3CA
:10FBC00000808248046804F4805038B104F4804016
:10FBD00020B105F4007008B1AFF3008004F40050C8
:10FBE00038B104F4004020B105F4806008B1AFF3EF
:10FBF000008076481030046874481C30066804EAB7
:10FC00000600C0B220B105F4006008B1AFF3008077
:10FC10006F48046804F4805038B104F4804020B187
:10FC200005F4805008B1AFF3008004F4005038B1FF
:10FC300004F4004020B105F4005008B1AFF3008097
:10FC400063481030046862488038D0F89C6004EA49
:10FC50000600C0B220B105F4804008B1AFF30080C7
:10FC60005C48046804F4805038B104F4804020B14A
:10FC700005F4803008B1AFF3008004F4005038B1CF
:10FC800004F4004020B105F4003008B1AFF3008067
:10FC90005048103004684F481C30066804EA0600DB
:10FCA000C0B220B105F4802008B1AFF300804A480B
:10FCB0000068012810D149488069494900EA0104D7
:10FCC0004648406900EA010604EA060020B105F44E
:10FCD000002008B1AFF3008042480468C66806F00F
:10FCE000200038B104F00B0020B105F4800008B109
:10FCF000AFF3008006EA040000F0200020B105F414
:10FD0000000008B1AFF3008006EA040000F08000B4
:10FD100020B105F0807008B1AFF3008006EA04005E
:10FD200000F0400020B105F0007008B1AFF3008092
:10FD300006F0020038B104F4807020B105F0806054
:10FD400008B1AFF300802848046827480C300668E3
:10FD500006F0200038B104F00B0020B105F000607F
:10FD600008B1AFF3008006EA040000F0200020B1E3
:10FD700005F0805008B1AFF3008006EA040000F0FF
:10FD8000800020B105F0005008B1AFF3008006EA12
:10FD9000040000F0400020B105F0804008B1AFF34E
:10FDA000008006F0020038B104F4807020B105F044
:10FDB000004008B1AFF3008070BD00007C12054028
:10FDC000005001408054014080580140805C014057
:10FDD00080600140806401400001804300000C40CD
:10FDE000FBFC7CF700D0014000D4014070B500243A
:10FDF00000269948056899480468C66806F02000FE
:10FE000038B104F00B0020B105F0010008B1AFF3E8
:10FE1000008006EA040000F0200020B105F0020096
:10FE200008B1AFF3008006EA040000F0800020B1C2
:10FE300005F0040008B1AFF3008006EA040000F00A
:10FE4000400020B105F0080008B1AFF3008006F0D3
:10FE5000020038B104F4807020B105F0100008B140
:10FE6000AFF300807E4804687D480C30066806F0D9
:10FE7000200038B104F00B0020B105F0200008B1DB
:10FE8000AFF3008006EA040000F0200020B105F086
:10FE9000400008B1AFF3008006EA040000F08000E3
:10FEA00020B105F0800008B1AFF3008006EA04003D
:10FEB00000F0400020B105F4807008B1AFF300807D
:10FEC00006F0020038B104F4807020B105F400702F
:10FED00008B1AFF3008063484468466904F4806069
:10FEE00038B106F0800020B105F4006008B1AFF32E
:10FEF000008004F4007038B106F0200020B105F451
:10FF0000805008B1AFF3008004F4006038B106F00F
:10FF1000010020B905F4005008B1AFF3008004F4EB
:10FF2000807038B106F01D0020B105F4804008B1A2
:10FF3000AFF300804C4804684B481030066804F466
:10FF4000806038B106F0800020B105F4803008B13F
:10FF5000AFF3008004F4007038B106F0200020B147
:10FF600005F4003008B1AFF3008004F4006038B14C
:10FF700006F0010020B905F4802008B1AFF300803D
:10FF800004F4807038B106F01D0020B105F40020A3
:10FF900008B1AFF3008035484468466904F48060D6
:10FFA00038B106F0800020B105F4001008B1AFF3BD
:10FFB000008004F4007038B106F0200020B105F490
:10FFC000800008B1AFF3008004F4006038B106F09F
:10FFD000010020B905F4000008B1AFF3008004F47B
:10FFE000807038B106F01D0020B105F0807008B1B6
:10FFF000AFF300801E4804681D481030066804F402
:020000040001F9
:10000000806038B106F0800020B105F0806008B152
:10001000AFF3008004F4007038B106F0200020B186
:1000200005F0006008B1AFF3008004F4006038B15F
:1000300006F0010020B905F0805008B1AFF3008050
:1000400004F4807038B106F01D0020B105F00050B6
:1000500008B1AFF3008070BD80120540001002406F
:100060000014024000C0014004C4014000000240EE
:100070000404024070B500248A4805688A48048B4D
:1000800005F0010038B104F0100020B104F0400088
:1000900008B1AFF3008005F0020038B104F0200091
:1000A00020B104F0800008B1AFF300807E48848B5B
:1000B00005F0040038B104F0100020B104F0400055
:1000C00008B1AFF3008005F0080038B104F020005B
:1000D00020B104F0800008B1AFF300807248048CB6
:1000E00005F0100038B104F0100020B104F0400019
:1000F00008B1AFF3008005F0200038B104F0200013
:1001000020B104F0800008B1AFF3008066484830A9
:10011000048805F0400038B104F4807020B104F484
:10012000007008B1AFF3008005F0800038B104F42E
:10013000005020B104F4804008B1AFF300805A4869
:10014000A430048805F4807040B104F00100C0437D
:1001500020B104F0100008B1AFF3008005F4007086
:1001600040B104F00200C04320B104F4807008B133
:10017000AFF3008005F4806040B104F00400C04398
:1001800020B104F4805008B1AFF3008047480488E0
:1001900005F4803038B104F0100020B104F04000C4
:1001A00008B1AFF3008005F4003038B104F020004E
:1001B00020B104F0800008B1AFF300803B48001D7F
:1001C000048805F4802038B104F0100020B104F058
:1001D000400008B1AFF3008005F4002038B104F00E
:1001E000200020B104F0800008B1AFF300802F4858
:1001F0000830048805F4801038B104F0100020B1F4
:1002000004F0400008B1AFF3008005F4001038B1ED
:1002100004F0200020B104F0800008B1AFF30080AA
:1002200022483030048805F4800038B104F480702E
:1002300020B104F4007008B1AFF3008005F40000B1
:1002400038B104F4005020B104F4804008B1AFF399
:10025000008016488C30048805F0807040B104F0AE
:100260000100C04320B104F0100008B1AFF30080DA
:1002700005F0007040B104F00200C04320B104F466
:10028000807008B1AFF3008005F0806040B104F0E9
:100290000400C04320B104F4805008B1AFF30080E3
:1002A00070BD0000841205400070014018480240F3
:1002B00070B50024464805684648048805F00100EA
:1002C00038B104F0100020B104F0400008B1AFF3E1
:1002D000008005F0020038B104F0200020B104F0E5
:1002E000800008B1AFF300803A48001D048805F093
:1002F000040038B104F0100020B104F0400008B14F
:10030000AFF3008005F0080038B104F0200020B100
:1003100004F0800008B1AFF300802E480830048854
:1003200005F0100038B104F0100020B104F04000D6
:1003300008B1AFF3008005F0200038B104F02000D0
:1003400020B104F0800008B1AFF3008021483030C4
:10035000048805F0400038B104F4807020B104F442
:10036000007008B1AFF3008005F0800038B104F4EC
:10037000005020B104F4804008B1AFF3008015486C
:100380008C30048805F4807040B104F00100C04353
:1003900020B104F0100008B1AFF3008005F4007044
:1003A00040B104F00200C04320B104F4807008B1F1
:1003B000AFF3008005F4806040B104F00400C04356
:1003C00020B104F4805008B1AFF3008070BD00008C
:1003D00088120540184C024070B57A48046800261F
:1003E00000257948006800F00F067748083000685B
:1003F00000F00F0506EA050020B104F0400008B146
:10040000AFF3008070482030006800F00F066E489F
:100410002830006800F00F0506EA050020B104F05E
:10042000800008B1AFF3008067484030006800F0FA
:100430000F0665484830006800F00F0506EA050021
:1004400020B104F4807008B1AFF300805E486030E2
:10045000006800F00F065C486830006800F00F0587
:1004600006EA050020B104F4007008B1AFF3008083
:1004700056484068012809D1544880300068012856
:1004800004D104F4803008B1AFF300804F48C06855
:10049000012809D14D4884300068012804D104F4B2
:1004A000003008B1AFF3008048480069012809D145
:1004B0004748806800F0030020B104F4802008B1B0
:1004C000AFF3008043484068012809D1414880309B
:1004D0000068012804D104F4002008B1AFF30080C3
:1004E0003C48C068012809D13A4884300068012896
:1004F00004D104F4801008B1AFF3008035480069DE
:10050000012809D13448006800F0030020B104F448
:10051000001008B1AFF3008030484068012809D1CD
:100520002E4880300068012804D104F4800008B10E
:10053000AFF300802948C068012809D127488430DA
:100540000068012804D104F4000008B1AFF3008072
:1005500022480069012809D12148806800F0030081
:1005600020B104F0807008B1AFF300801D484068EE
:10057000012809D11B4880300068012804D104F00B
:10058000007008B1AFF300801648C068012809D197
:10059000144884300068012804D104F0806008B158
:1005A000AFF300800F480069012809D10E480068A8
:1005B00000F0030020B104F0006008B1AFF3008048
:1005C00070BD00008C1205400C7C014000003C42D4
:1005D00000E0014000803C4208E401400000444249
:1005E00000200240008044420824024070B5874841
:1005F0000468002600258648D0F89800012808D114
:1006000084480068012804D104F0100008B1AFF359
:1006100000807F488C300068012809D17D480C3863
:100620000068012804D104F0200008B1AFF3008075
:1006300077489C300068012809D17648001D006881
:10064000012804D104F0400008B1AFF300807248E3
:100650004068724900EA01066F48C06900EA010576
:1006600006EA050020B104F0800008B1AFF3008075
:100670006B480068012808D16A480068012804D145
:1006800004F4807008B1AFF3008065480C3800684E
:10069000012809D163480C380068012804D104F40A
:1006A000007008B1AFF300805D48001D00680128AC
:1006B00009D15C48001D0068012804D104F4806061
:1006C00008B1AFF3008058480068544900EA0106B9
:1006D00055481830006800EA010506EA050020B117
:1006E00004F4006008B1AFF30080504800680128AE
:1006F00008D14F480068012804D104F4805008B1A3
:10070000AFF3008049480C380068012809D14848F7
:100710000C380068012804D104F4005008B1AFF38C
:1007200000804248001D0068012809D14048001D92
:100730000068012804D104F4804008B1AFF30080C0
:100740003C480068354900EA01063A48183000681C
:1007500000EA010506EA050020B104F4004008B1F2
:10076000AFF3008034480068012808D1334800689E
:10077000012804D104F4003008B1AFF300802E4802
:1007800010300068012809D12C4810300068012879
:1007900004D104F4802008B1AFF300802848006839
:1007A000012809D1264880300068012804D104F4CA
:1007B000801008B1AFF300802148001D00680128B7
:1007C00009D11F4884300068012804D104F40010C6
:1007D00008B1AFF300801A4808300068012809D139
:1007E000174888300068012804D104F4800008B15B
:1007F000AFF300801348406800F4403020B104F4A7
:10080000000008B1AFF3008070BD000090120540F9
:1008100000009C4298039C4200E004401752F00004
:1008200098809C4298839C4204E4044098009D4236
:1008300098039D4204E804406082A842241CA84218
:10084000008390420090044070B53C480468002545
:100850003B480068012809D1394820380068012840
:1008600004D104F0010008B1AFF300803448001D4A
:100870000068012809D132481C380068012804D1D9
:1008800004F0020008B1AFF300802E4805882E481E
:100890000068012809D12D480068012800D025B141
:1008A00004F0040008B1AFF3008027480068012875
:1008B00009D126480068012800D025B104F00800BD
:1008C00008B1AFF3008022480068012809D1204810
:1008D00020380068012804D104F0100008B1AFF3FB
:1008E00000801B48001D0068012809D118481C38E9
:1008F0000068012804D104F0200008B1AFF30080A3
:1009000014480068012809D113480088C0F3080082
:1009100020B104F0400008B1AFF300800D4800683A
:10092000012809D10C480088C0F3080020B104F068
:10093000800008B1AFF3008070BD00009412054044
:10094000E0088042B00004402014804240168042FB
:10095000E088804220948042B00404402DE9F05F9A
:100960000026B346002400250027A046A146A24643
:100970003A48006801281AD13948078838480830B1
:10098000B0F80080801FB0F8009035480A30B0F809
:1009900000A007EA080040F2F711084028B909EA68
:1009A0000A0040F27F11084008B1AFF300802B48E5
:1009B0000C300068012815D12A48078EB0F838801D
:1009C000B0F83290B0F83AA007EA080040F2F71108
:1009D000084028B909EA0A0040F27F11084008B12E
:1009E000AFF300801D4810300068012834D11E4844
:1009F0000678401E90F800B0801C04781A481A301F
:100A0000057805F0200028BB06F0010010BB06EABF
:100A10000B0000F0FE00E8B904F0010010B104F092
:100A20000200B8B904F0040010B104F0080088B95D
:100A300004F0100010B104F0200058B905F00800CF
:100A400010B105F0100028B905F0400020B105F004
:100A5000800008B1AFF30080BDE8F09F0853A242C8
:100A600030FC064000000740A504074010B5AFF376
:100A7000008010BD10B5AFF3008010BD00B5024678
:100A80000B4600F047F9012B07D10948008802F016
:100A90001F0108430649088006E00548008802F067
:100AA0001F0188430249088000F09AF8002000BD29
:100AB000F43B054010B502460548102404FB020330
:100AC0001868084008B1012010BD0020FCE70000B4
:100AD0000038054070B504460025532C01DD002088
:100AE00070BD04EB4402084B03EB8202518804EB17
:100AF000440203EB82025078FFF7DCFF05460DB19C
:100B00000120EDE70020EBE7D01E0300F0B505461D
:100B10000F461346002400F0FDF800BF57E0012007
:100B2000A0403840002850D02C4800EB851000EB46
:100B300084022A48801C00EB851000EB840659785B
:100B4000108861F38E3010809978108861F30C3032
:100B50001080D978108861F34920108019791088A5
:100B600061F3861010809979108861F382001080FB
:100B70005979108861F305101080187820B1012888
:100B80000BD002281AD112E0108820F40040108007
:100B9000108820F00200108011E0108820F400403E
:100BA0001080108820F00200801C108007E0108860
:100BB00020F4004000F50040108000E000BF00BFBE
:100BC000D979308861F308203080601CC4B2102CC1
:100BD000A5D300F005F80020F0BD0000003C054062
:100BE0004FF425400149088070470000FC3B054058
:100BF00010B502460448102404FB02031888084379
:100C00001880002010BD00000A38054010B50446C9
:100C1000532C01DD012010BD04EB4402054B03EB16
:100C20008202518804EB440203EB82025078FFF702
:100C3000DFFFF0E7D01E030010B502460448102481
:100C400004FB0203188808431880002010BD000030
:100C50000838054010B50446532C01DD012010BDB5
:100C600004EB4402054B03EB8202518804EB44027F
:100C700003EB82025078FFF7DFFFF0E7D01E03009E
:100C8000F0B504460D4616461F46002300F042F814
:100C9000002319E001209840284098B10D484021D8
:100CA00001FB0400042101FB0302108866F3050028
:100CB0001080012F01D1012100E00021108861F393
:100CC00008201080581CC3B2102BE3D3FFF788FF15
:100CD0000020F0BD023C054070B504460D46532C83
:100CE00001DD012070BD04EB4403094E06EB8303D4
:100CF0005A7A04EB440306EB8303598804EB44035C
:100D000006EB830358782B46FFF7BAFFEAE70000AB
:100D1000D01E03004AF201500149088070470000CC
:100D2000FC3B05400B4A12690B4B1A43094B1A61F5
:100D3000012904D11A46126882431A6004E0054A68
:100D400012680243034B1A60034A521E014B1A6198
:100D500070470000008004400100A5A5012905D1CD
:100D6000054A52688243044B5A6004E0024A5268C2
:100D70000243014B5A60704700800440012905D1AD
:100D8000054A92688243044B9A6004E0024A9268E2
:100D90000243014B9A60704700800440012905D14D
:100DA000054AD2688243044BDA6004E0024AD26802
:100DB0000243014BDA6070470080044010B5AFF386
:100DC000008010BD002200214AF202500F4B188013
:100DD00000BF491C0E48008820F4004000F5004088
:100DE0000B4BC03BA3F8C00009480288B1F5805FF7
:100DF00001D0002AEDD14FF42540044B1880B1F505
:100E0000805F01D3092070470020FCE7FE430540C6
:100E1000C040054008B5014600200090002209B9F5
:100E2000042008BD2048008800906A461088C0F35E
:100E3000803008701088C0F3403048701088C0F3CC
:100E4000003088701088C0F3C020C8701088C0F3CC
:100E5000802008711088C0F3402048711088C0F3CA
:100E6000002088711088C0F3C010C8711088C0F3CA
:100E7000801008721088C0F3401048721088C0F3C8
:100E8000001088721088C0F30010C8721088C0F378
:100E9000800008731088C0F340004873108800F089
:100EA000010088730020BCE7C0400540F0B5014652
:100EB000002500240026002200230420002966D0FB
:100EC000CF6D07F47F07B7F5800F1ED101F15003F6
:100ED000DF79BF06BF0A93F806C007EB0C2793F82B
:100EE00005C007EB0C056F1CBC029F7A3F0193F80D
:100EF00009C047EA1C1CC1F820C05F7A07F00F0C3C
:100F0000012707FA0CF7CF6234E001F15002177A9B
:100F1000BF073F0D92F807C007EB8C0792F806C099
:100F200007EB9C155779BF077F0F92F804C007EBBA
:100F3000DC166F1C06F1020C07FA0CF4577A07F066
:100F40000F070A2F01D1640005E0577A07F00F0759
:100F50000B2F00D1A400977A3F0192F809C047EA0D
:100F60001C1CC1F820C0577A07F00F0C012707FAA4
:100F70000CF7CF628C62D1E90A7C4FEA5C2C07FB4C
:100F80000CF70F634FF4007CC1F834C00020F0BDB3
:100F9000014608797047000070B505460E460424E6
:100FA000002D3AD0002E38D0EE60284618F036FCDE
:100FB00004462CB121461AA01EF0CAFC204670BD82
:100FC000284618F09CFB044634B16A6921461BA0F0
:100FD0001EF0BEFC2046F2E7284618F05BFB0446F4
:100FE0002CB121461DA01EF0B3FC2046E7E72846A1
:100FF00018F0BCFD04462CB121461EA01EF0A8FC32
:101000002046DCE7284618F031FC04462CB1214686
:1010100020A01EF09DFC2046D1E72046CFE700002F
:10102000536443617264496E6974486F73742066D7
:1010300061696C2C257520210A000000536443610E
:101040007264506F7765724F4E206661696C2C2513
:10105000752C3078257820210A0000005364436104
:101060007264496E69745364206661696C2C2575DD
:1010700020210A005364436172645365744275739E
:101080005769647468206661696C2C257520210A93
:1010900000000000536443617264536574537065CB
:1010A0006564206661696C2C257520210A000000AA
:1010B0002DE9F04F87B004460F4615469846C146C5
:1010C0006F480068C0084FF47A71B0FBF1F01099D6
:1010D00000FB01FACDF810A02046FFF759FF834628
:1010E00000200390029034B966A01EF031FC042069
:1010F00007B0BDE8F08FB8F1000F00D045B96069C6
:1011000040F00060606168A01EF022FC0420EFE760
:10111000002060617919206B814208D9606940F034
:10112000007060616DA01EF013FC0420E0E7A06970
:10113000012800D07F0204F138024FF400712068CA
:1011400000F0C6FD06460EB13046D1E7ADF81650A8
:101150004FF40070ADF814000E208DF81A00012035
:101160008DF81900012D00D900E000208DF818003D
:10117000012D01D9022000E000208DF81B0005A9F7
:10118000206800F0D1F906460EB13046B0E7BBF159
:10119000010F10D1A06870B1A068006858B14FF677
:1011A000FF7000EA45200090A3681979226818684A
:1011B0004B4618F003FC012D09D10120206104F1F8
:1011C00038023946206800F0B7FD064608E00220E4
:1011D000206104F138023946206800F0E1FD06463E
:1011E0000EB1304684E7BBF1000F25D122E04FF469
:1011F0000061206800F013FA03902021206800F0BD
:1012000001FA0290039801280ED1029801280BD10F
:101210004FF400724946206800F0B4FA681E85B2A7
:10122000CDF810A009F500790498411E049108B981
:1012300009205DE7002DDAD1CDF810A009E00221E8
:10124000206800F0DFF9012800D105E00498401E75
:10125000049004980028F2D100BF049808B909202E
:1012600046E70221206800F04FF94FF40041206862
:1012700000F0C8F9012800D10126304638E7000007
:10128000080000205344204572726F72496E7661E7
:101290006C6964506172616D657465722D3E284E93
:1012A000554C4C290A0000005344204572726F725D
:1012B000496E76616C6964506172616D65746572C6
:1012C0002D3E2853445F434152445F4552524F5292
:1012D0005F504152414D290A00000000534420450F
:1012E00072726F72496E76616C6964506172616D81
:1012F000657465722D3E2853445F434152445F45F7
:1013000052524F525F414444525F4F55545F4F46D3
:101310005F52414E4745290A000000002DE9F04F79
:1013200087B00446884615469946CA4675480068FF
:101330003221B0FBF1F04FF47A71B0FBF1F010996B
:1013400000FB01F704972046FFF722FE83460020AA
:10135000039002901CB9042007B0BDE8F08FB9F1EA
:10136000000F00D02DB9606940F00060606104207A
:10137000F2E70020606108EB0501206B814205D98E
:10138000606940F0007060610420E5E704F1380214
:101390004FF40071206800F09BFC06460EB1304609
:1013A000DAE7ADF816504FF40070ADF814000E20D7
:1013B0008DF81A0000208DF81900012D01D90120A7
:1013C00000E000208DF81800012D01D9022000E076
:1013D00000208DF81B0005A9206800F0A5F806463E
:1013E0000EB13046B8E7A069012801D04FEA48287D
:1013F000BBF1010F10D1A06870B1A068006858B1AE
:101400004FF6FF7000EA45200090A3681979226822
:101410001868534618F03EFB012D07D104F138023D
:101420004146206800F0F0FC064606E004F1380270
:101430004146206800F01CFD06460EB130468BE7A1
:10144000BBF1000F24D121E04FF48061206800F04F
:10145000E6F803901021206800F0D4F80290039879
:1014600001280DD1029801280AD14FF4007251468B
:10147000206800F0DDFA681E85B204970AF5007A4C
:101480000498411E049108B9092065E7002DDBD1BD
:10149000049714E04FF48011206800F0C0F8039026
:1014A0000221206800F0AEF802900398012803D1D1
:1014B0000298012800D105E00498401E0490049889
:1014C0000028E7D100BF049808B9092044E70221A9
:1014D000206800F019F83946204618F07FFB0646D0
:1014E0000EB1304638E74FF40041206800F08AF82A
:1014F000012800D130E71021206800F005F8002015
:101500002AE700000800002002460420044B9A420B
:1015100002D0044B9A4201D111860020704700008E
:1015200000FC06400000074078B502460024002574
:1015300000950420314DAA4202D0314DAA425BD120
:10154000002959D00020CD7935B1012D0FD0022DC1
:1015500019D0032D32D124E0BDF8005025F020052C
:101560000095BDF8005025F00205009528E0BDF873
:10157000005025F0200520350095BDF8005025F0DD
:10158000020500951CE04C88BDF8005025F02005B0
:1015900020350095BDF8005025F00205AD1C0095E2
:1015A0000EE0BDF8005025F0200520350095BDF86F
:1015B000005025F00205AD1C009501E0042000BF9D
:1015C00000BFC8B9BDF8005025F0010500954E795F
:1015D000BDF8005066F3041500950E79BDF8005073
:1015E00066F3830500958D7982F82E50D4800D889E
:1015F00095806B461D88958178BD000000FC0640F3
:10160000000007400246108E084008B101207047D4
:101610000020FCE7024602F11000405870470246E5
:10162000506A084008B1012070470020FCE7000024
:101630002DE9F84305460C460020009080464E48B0
:1016400000686421B0FBF1F74FF00409002628463A
:1016500018F048FE0646002E7ED095F82F0020F0A8
:101660000100401C85F82F0005E00098411C009106
:10167000B84200D905E095F82F0000F001000028DD
:10168000F3D100BF0098B84271D23C48006AC0F361
:1016900002510120884038490968B1FBF0F8384907
:1016A000404618F0D7FDA98D60F30F21A985A88DBC
:1016B00020F00400001DA885A88D20F00100401C2A
:1016C000A88595F8290020F00100401C85F8290024
:1016D00040F27F106886E886F720288640F2F710EF
:1016E000A886002C40D0206810B120680088288788
:1016F0006068B8B1606800683060606840687060B9
:1017000060688068B0606068C068F06060680069A8
:10171000306160684069706160688069B06160686C
:10172000C069F061A06810B1A06800886887E068AF
:10173000D0B1E06800683062E06841687162E068DA
:101740008168B162E068C168F162E0680169316393
:10175000E0688169B16301E00BE008E0E06841699D
:101760007163E068C169F1634FF0000901E04FF077
:1017700009094846BDE8F8830800002000400540FC
:10178000801A06002DE9F041034615460022002488
:101790000026042021B3134FBB4202D0124FBB429C
:1017A0001ED105F00307DFB903F1200615E0346808
:1017B0009446521C01F80C40C4F307281746521CEB
:1017C00001F80780C4F307481746521C01F8078048
:1017D000270E9446521C01F80C70AA42E7D3002051
:1017E000BDE8F08100FC06400000074038B5024625
:1017F00004204B4CA24202D04A4CA2427DD1002987
:101800007BD000204C7A0A2C64D2DFE804F0053942
:101810004F1527283A503B3CBDF8004024F0030404
:101820000094BDF8004024F008040094BDF8004086
:1018300024F0100400944FE0BDF8004024F00304AD
:10184000641C0094BDF8004024F00804083400949F
:10185000BDF8004024F0100400943DE000BFBDF846
:10186000004024F00304A41C0094BDF8004024F0C0
:1018700008040094BDF8004024F0100400942BE00C
:1018800000BF00BF00BFBDF8004024F00304A41C4B
:101890000094BDF8004024F0080408340094BDF81A
:1018A000004024F010041034009415E000BFBDF88F
:1018B000004024F00304E41C0094BDF8004024F030
:1018C000080408340094BDF8004024F010041034DB
:1018D000009401E0042000BF00BF70B9BDF80040D3
:1018E00024F0040400940D7ABDF8004065F38714D9
:1018F00000940D78BDF8004000E00FE065F30D2482
:1019000000948D7ABDF8004065F34514009402F10F
:1019100008034C681C606B461C88D48138BD0000ED
:1019200000FC06400000074002460420174B9A4284
:1019300002D0174B9A4227D1002071B1012918D04B
:1019400002291ED112F8283F23F0200313701378C8
:1019500023F0020302F8283915E012F8283F23F09B
:1019600020031370137823F002039B1C02F828391C
:1019700009E092F8283023F02003203382F8283041
:1019800001E0042000BF00BF7047000000FC0640DB
:10199000000007402DE9F04104460D4600260427CB
:1019A0001248844202D0124884421BD11148006A76
:1019B000C0F30251012088400F490968B1FBF0F6DD
:1019C000A08D20F00400A0852946304618F042FC86
:1019D000A18D60F30F21A185A08D20F00400001DD2
:1019E000A08500273846BDE8F081000000FC0640D5
:1019F00000000740004005400800002010B50246E6
:101A00000420094B9A4202D0084B9A420BD101297B
:101A100001D1012300E0002392F8284063F38204FF
:101A200082F82840002010BD00FC0640000007405E
:101A3000F0B503461546002200240026042051B3C9
:101A4000154FBB4202D0154FBB4224D105F003070E
:101A50000FBB03F120061BE01746521CCC5D174656
:101A6000521CCF5D4FF47F4C0CEA07273C441746CD
:101A7000521CCF5D4FF47F0C0CEA07473C441746DD
:101A8000521CCF5D4FF07F4C0CEA07673C4434603A
:101A9000AA42E1D30020F0BD00FC06400000074050
:101AA00070B506460C4622460121304613F072FD01
:101AB00005462DB1294603A01DF04AFF002070BD48
:101AC0000120FCE75344494F5F52656164426C6FEB
